S01000005072656C616220362E7372656368
S11300000C9434000C9451000C9451000C94510045
S11300100C9451000C9451000C9451000C94510018
S11300200C9451000C9451000C9451000C94510008
S11300300C9451000C9451000C9451000C945100F8
S11300400C9451000C9451000C9416010C94510022
S11300500C9451000C94EF000C9451000C9451003A
S11300600C9451000C94510011241FBECFEFD8E022
S1130070DEBFCDBF11E0A0E0B1E0EEE6F2E002C0E9
S113008005900D92AE30B107D9F721E0AEE0B1E0B2
S113009001C01D92A231B207E1F70E94CC000C947A
S11300A035010C940000F8948FEF84B915B88AB127
S11300B08E7F8AB98AB182608AB91092C000E1EC5D
S11300C0F0E01082808188698083E2ECF0E01082A5
S11300D080818660808387E690E09093C50080935A
S11300E0C40008959091C00095FFFCCF8093C60092
S11300F00895AC0120E007C09091C00095FFFCCFAB
S11301003093C6002F5FFA01E20FF11D30813111E7
S1130110F3CF08958233B1F028F4803349F081336A
S113012061F024C08433C1F090F08533D1F01EC057
S113013015B885B1816085B9089515B885B1826017
S113014085B9089515B885B1846085B9089515B841
S113015085B1886085B9089515B885B1806185B980
S1130160089515B885B1806285B908958FEF85B972
S11301702FEF81EE94E0215080409040E1F700C0E1
S1130180000015B82FEF81EE94E02150804090409C
S1130190E1F700C0000008950E94530080E091E060
S11301A00E9479008AE00E9472008DE00E94720031
S11301B07894EAE7F0E08081806480838091100184
S11301C090911101892BA9F3809110019091110153
S11301D00E948A001092110110921001EACF1F921E
S11301E00F920FB60F9211248F939F93EF93FF9367
S11301F08091780090917900EAE7F0E08081806155
S11302008083892F82958F7080930F01892F8F703F
S113021080930E01808180648083FF91EF919F9190
S11302208F910F900FBE0F901F9018951F920F92F1
S11302300FB60F9211248F939F938091C60090E084
S113024090931101809310018091C00085FFFCCF31
S113025080911001909111018093C6009F918F911C
S11102600F900FBE0F901F901895F894FFCFCB
S111026E486F6C61206D756E646F203A290034
S9030000FC
